{
  "contractName": "ChannelFinal",
  "abi": [
    {
      "constant": true,
      "inputs": [
        {
          "name": "",
          "type": "uint256"
        }
      ],
      "name": "owners",
      "outputs": [
        {
          "name": "",
          "type": "address"
        }
      ],
      "payable": false,
      "stateMutability": "view",
      "type": "function"
    },
    {
      "constant": true,
      "inputs": [],
      "name": "channelValue",
      "outputs": [
        {
          "name": "",
          "type": "uint256"
        }
      ],
      "payable": false,
      "stateMutability": "view",
      "type": "function"
    },
    {
      "constant": true,
      "inputs": [],
      "name": "closed",
      "outputs": [
        {
          "name": "",
          "type": "bool"
        }
      ],
      "payable": false,
      "stateMutability": "view",
      "type": "function"
    },
    {
      "constant": true,
      "inputs": [],
      "name": "accepted",
      "outputs": [
        {
          "name": "",
          "type": "bool"
        }
      ],
      "payable": false,
      "stateMutability": "view",
      "type": "function"
    },
    {
      "constant": true,
      "inputs": [],
      "name": "limit",
      "outputs": [
        {
          "name": "",
          "type": "uint16"
        }
      ],
      "payable": false,
      "stateMutability": "view",
      "type": "function"
    },
    {
      "constant": true,
      "inputs": [
        {
          "name": "",
          "type": "address"
        }
      ],
      "name": "requestedClose",
      "outputs": [
        {
          "name": "",
          "type": "bool"
        }
      ],
      "payable": false,
      "stateMutability": "view",
      "type": "function"
    },
    {
      "constant": true,
      "inputs": [
        {
          "name": "",
          "type": "address"
        }
      ],
      "name": "disputed",
      "outputs": [
        {
          "name": "",
          "type": "bool"
        }
      ],
      "payable": false,
      "stateMutability": "view",
      "type": "function"
    },
    {
      "constant": true,
      "inputs": [],
      "name": "channelEnd",
      "outputs": [
        {
          "name": "",
          "type": "uint256"
        }
      ],
      "payable": false,
      "stateMutability": "view",
      "type": "function"
    },
    {
      "inputs": [
        {
          "name": "_nearEnd",
          "type": "address"
        },
        {
          "name": "_farEnd",
          "type": "address"
        },
        {
          "name": "_daysOpen",
          "type": "uint256"
        }
      ],
      "payable": true,
      "stateMutability": "payable",
      "type": "constructor"
    },
    {
      "anonymous": false,
      "inputs": [
        {
          "indexed": true,
          "name": "NearEnd",
          "type": "address"
        },
        {
          "indexed": false,
          "name": "nearEndValue",
          "type": "uint256"
        },
        {
          "indexed": true,
          "name": "FarEnd",
          "type": "address"
        },
        {
          "indexed": false,
          "name": "farEndValue",
          "type": "uint256"
        },
        {
          "indexed": false,
          "name": "currentId",
          "type": "uint256"
        }
      ],
      "name": "stateUpdated",
      "type": "event"
    },
    {
      "anonymous": false,
      "inputs": [
        {
          "indexed": true,
          "name": "end",
          "type": "address"
        },
        {
          "indexed": false,
          "name": "currentId",
          "type": "uint256"
        }
      ],
      "name": "disputeAccepted",
      "type": "event"
    },
    {
      "anonymous": false,
      "inputs": [
        {
          "indexed": false,
          "name": "randomS",
          "type": "bytes32[]"
        },
        {
          "indexed": false,
          "name": "random",
          "type": "bytes32[]"
        }
      ],
      "name": "rsShownAndUsed",
      "type": "event"
    },
    {
      "anonymous": false,
      "inputs": [
        {
          "indexed": false,
          "name": "farEndValue",
          "type": "uint256"
        },
        {
          "indexed": false,
          "name": "totalValue",
          "type": "uint256"
        }
      ],
      "name": "channelAccepted",
      "type": "event"
    },
    {
      "anonymous": false,
      "inputs": [
        {
          "indexed": true,
          "name": "end",
          "type": "address"
        },
        {
          "indexed": false,
          "name": "closeChange",
          "type": "bool"
        }
      ],
      "name": "closeRequest",
      "type": "event"
    },
    {
      "anonymous": false,
      "inputs": [
        {
          "indexed": true,
          "name": "NearEnd",
          "type": "address"
        },
        {
          "indexed": false,
          "name": "nearEndFinalValue",
          "type": "uint256"
        },
        {
          "indexed": true,
          "name": "FarEnd",
          "type": "address"
        },
        {
          "indexed": false,
          "name": "farEndFinalValue",
          "type": "uint256"
        },
        {
          "indexed": false,
          "name": "finalId",
          "type": "uint256"
        }
      ],
      "name": "channelClosed",
      "type": "event"
    },
    {
      "constant": false,
      "inputs": [],
      "name": "acceptChannel",
      "outputs": [],
      "payable": true,
      "stateMutability": "payable",
      "type": "function"
    },
    {
      "constant": false,
      "inputs": [
        {
          "name": "_end_chann",
          "type": "address[2]"
        },
        {
          "name": "_values_id",
          "type": "uint256[2]"
        },
        {
          "name": "_v",
          "type": "uint8"
        },
        {
          "name": "_r_s",
          "type": "bytes32[2]"
        },
        {
          "name": "_rsSigned",
          "type": "bytes32[]"
        },
        {
          "name": "_rs",
          "type": "bytes32[]"
        },
        {
          "name": "_hs",
          "type": "bytes32[]"
        },
        {
          "name": "_ttls",
          "type": "uint256[]"
        },
        {
          "name": "_rhValues",
          "type": "uint256[]"
        },
        {
          "name": "_end",
          "type": "uint8[]"
        }
      ],
      "name": "updateState",
      "outputs": [],
      "payable": false,
      "stateMutability": "nonpayable",
      "type": "function"
    },
    {
      "constant": false,
      "inputs": [
        {
          "name": "_end_chann",
          "type": "address[2]"
        },
        {
          "name": "_values_id",
          "type": "uint256[2]"
        },
        {
          "name": "_v",
          "type": "uint8"
        },
        {
          "name": "_r_s",
          "type": "bytes32[2]"
        },
        {
          "name": "_rsSigned",
          "type": "bytes32[]"
        },
        {
          "name": "_rs",
          "type": "bytes32[]"
        },
        {
          "name": "_hs",
          "type": "bytes32[]"
        },
        {
          "name": "_ttls",
          "type": "uint256[]"
        },
        {
          "name": "_rhValues",
          "type": "uint256[]"
        },
        {
          "name": "_end",
          "type": "uint8[]"
        }
      ],
      "name": "disputeState",
      "outputs": [],
      "payable": false,
      "stateMutability": "nonpayable",
      "type": "function"
    },
    {
      "constant": false,
      "inputs": [
        {
          "name": "_close",
          "type": "bool"
        }
      ],
      "name": "closeChannel",
      "outputs": [],
      "payable": false,
      "stateMutability": "nonpayable",
      "type": "function"
    },
    {
      "constant": false,
      "inputs": [],
      "name": "unlockFunds",
      "outputs": [],
      "payable": false,
      "stateMutability": "nonpayable",
      "type": "function"
    },
    {
      "constant": true,
      "inputs": [],
      "name": "getStateNear",
      "outputs": [
        {
          "name": "val",
          "type": "uint256"
        }
      ],
      "payable": false,
      "stateMutability": "view",
      "type": "function"
    },
    {
      "constant": true,
      "inputs": [],
      "name": "getStateFar",
      "outputs": [
        {
          "name": "val",
          "type": "uint256"
        }
      ],
      "payable": false,
      "stateMutability": "view",
      "type": "function"
    },
    {
      "constant": true,
      "inputs": [],
      "name": "getStateId",
      "outputs": [
        {
          "name": "val",
          "type": "uint256"
        }
      ],
      "payable": false,
      "stateMutability": "view",
      "type": "function"
    }
  ],
  "bytecode": "0x6080604052604051606080620018e5833981016040818152825160208085015194830151838501909352600160a060020a038083168552851690840152929181906200004f600082600262000082565b5050620151800242016002555050600160a060020a03166000908152600560205260409020349081905560075562000109565b8260028101928215620000cd579160200282015b82811115620000cd5782518254600160a060020a031916600160a060020a0390911617825560209092019160019091019062000096565b50620000db929150620000df565b5090565b6200010691905b80821115620000db578054600160a060020a0319168155600101620000e6565b90565b6117cc80620001196000396000f3006080604052600436106100e55763ffffffff7c0100000000000000000000000000000000000000000000000000000000600035041663025e7c2781146100ea57806328a72f221461011e5780633af84f121461013a5780633b898963146101615780633c2fa6501461034a578063448e5fd01461035f578063597e1fb51461037457806367fe5a0c1461039d57806371710256146103b2578063a4d66daf1461059b578063b0e30c44146105c7578063b4d1c485146105dc578063b738d7a0146105f1578063e6954c0014610612578063e88f621014610633578063ee70a1dd1461063b575b600080fd5b3480156100f657600080fd5b50610102600435610650565b60408051600160a060020a039092168252519081900360200190f35b34801561012a57600080fd5b50610138600435151561066d565b005b34801561014657600080fd5b5061014f6108f8565b60408051918252519081900360200190f35b34801561016d57600080fd5b50604080518082018252610138913691600491604491908390600290839083908082843750506040805180820182529497969581810195945092506002915083908390808284375050604080518082018252949760ff873516979096909560608201955093506020019150600290839083908082843750506040805186358801803560208181028481018201909552818452979a99988801979296509082019450925082919085019084908082843750506040805187358901803560208181028481018201909552818452989b9a998901989297509082019550935083925085019084908082843750506040805187358901803560208181028481018201909552818452989b9a998901989297509082019550935083925085019084908082843750506040805187358901803560208181028481018201909552818452989b9a998901989297509082019550935083925085019084908082843750506040805187358901803560208181028481018201909552818452989b9a998901989297509082019550935083925085019084908082843750506040805187358901803560208181028481018201909552818452989b9a9989019892975090820195509350839250850190849080828437509497506108fe9650505050505050565b34801561035657600080fd5b5061014f610a21565b34801561036b57600080fd5b5061014f610a4a565b34801561038057600080fd5b50610389610a50565b604080519115158252519081900360200190f35b3480156103a957600080fd5b50610389610a59565b3480156103be57600080fd5b50604080518082018252610138913691600491604491908390600290839083908082843750506040805180820182529497969581810195945092506002915083908390808284375050604080518082018252949760ff873516979096909560608201955093506020019150600290839083908082843750506040805186358801803560208181028481018201909552818452979a99988801979296509082019450925082919085019084908082843750506040805187358901803560208181028481018201909552818452989b9a998901989297509082019550935083925085019084908082843750506040805187358901803560208181028481018201909552818452989b9a998901989297509082019550935083925085019084908082843750506040805187358901803560208181028481018201909552818452989b9a998901989297509082019550935083925085019084908082843750506040805187358901803560208181028481018201909552818452989b9a998901989297509082019550935083925085019084908082843750506040805187358901803560208181028481018201909552818452989b9a998901989297509082019550935083925085019084908082843750949750610a679650505050505050565b3480156105a757600080fd5b506105b0610b83565b6040805161ffff9092168252519081900360200190f35b3480156105d357600080fd5b5061014f610b88565b3480156105e857600080fd5b50610138610b95565b3480156105fd57600080fd5b50610389600160a060020a0360043516610d6e565b34801561061e57600080fd5b50610389600160a060020a0360043516610d83565b610138610d98565b34801561064757600080fd5b5061014f610e4f565b6000816002811061065d57fe5b0154600160a060020a0316905081565b600080015433600160a060020a039081169116148061069d575060006001015433600160a060020a039081169116145b15156106a857600080fd5b600354610100900460ff1615156106be57600080fd5b60035460ff16156106ce57600080fd5b60025462015180014211156106e257600080fd5b8080156107155750600860006106f733610e55565b600160a060020a0316815260208101919091526040016000205460ff165b15610898576003805460ff191660019081179091555460008054600160a060020a03908116808352600560209081526040808520549390951680855293859020546006548651948552918401528285015292519192917f9254b83d635c083b09ad98d06608d55c4b6419984db1e47e8aac7ff26407c8079181900360600190a360008054600160a060020a031681526005602052604081205411156108135760008054600160a060020a031680825260056020526040808320549051919281156108fc029290818181858888f193505050501580156107f8573d6000803e3d6000fd5b5060008054600160a060020a03168152600560205260408120555b600154600160a060020a0316600090815260056020526040812054111561089357600154600160a060020a031660008181526005602052604080822054905181156108fc0292818181858888f19350505050158015610876573d6000803e3d6000fd5b50600154600160a060020a03166000908152600560205260408120555b6108f5565b33600160a060020a0316600081815260086020908152604091829020805460ff1916851515908117909155825190815291517fbe7d5e7834db5c15f0f063c5ac8f841091e9cbaae0b8b65f532641e66277eec89281900390910190a25b50565b60075481565b600080015433600160a060020a039081169116148061092e575060006001015433600160a060020a039081169116145b151561093957600080fd5b600354610100900460ff16151561094f57600080fd5b60035460ff161561095f57600080fd5b60025442118015610977575060025462015180014211155b151561098257600080fd5b600160a060020a03331660009081526004602052604090205460ff16156109a857600080fd5b6109ba8a8a8a8a8a8a8a8a8a8a610eaa565b600160a060020a033316600081815260046020908152604091829020805460ff19166001179055600654825190815291517ffc3ee557fbb75d9a31dfe513271468047cc04d782c33d3109181b410ab6b81a09281900390910190a250505050505050505050565b600060058180805b0154600160a060020a03168152602081019190915260400160002054905090565b60065490565b60035460ff1681565b600354610100900460ff1681565b600080015433600160a060020a0390811691161480610a97575060006001015433600160a060020a039081169116145b1515610aa257600080fd5b600354610100900460ff161515610ab857600080fd5b60035460ff1615610ac857600080fd5b600254421115610ad757600080fd5b610ae98a8a8a8a8a8a8a8a8a8a610eaa565b895133600160a060020a038181166000818152600560208190526040822054939095169491937f33fa1e736afd93ed8bbdb8ca6ffc74ddcb4f0dbb1e59853da11ef7ae089a64ad93929190610b3d90610e55565b600160a060020a0316815260208082019290925260409081016000205460065482519485529284015282810191909152519081900360600190a350505050505050505050565b60fb81565b6000600581806001610a29565b600080015433600160a060020a0390811691161480610bc5575060006001015433600160a060020a039081169116145b1515610bd057600080fd5b60035460ff1615610be057600080fd5b60025462015180014211610bf357600080fd5b6003805460ff191660019081179091555460008054600160a060020a03908116808352600560209081526040808520549390951680855293859020546006548651948552918401528285015292519192917f9254b83d635c083b09ad98d06608d55c4b6419984db1e47e8aac7ff26407c8079181900360600190a360008054600160a060020a03168152600560205260408120541115610cec5760008054600160a060020a031680825260056020526040808320549051919281156108fc029290818181858888f19350505050158015610cd1573d6000803e3d6000fd5b5060008054600160a060020a03168152600560205260408120555b600154600160a060020a03166000908152600560205260408120541115610d6c57600154600160a060020a031660008181526005602052604080822054905181156108fc0292818181858888f19350505050158015610d4f573d6000803e3d6000fd5b50600154600160a060020a03166000908152600560205260408120555b565b60086020526000908152604090205460ff1681565b60046020526000908152604090205460ff1681565b60006001015433600160a060020a03908116911614610db657600080fd5b600354610100900460ff1615610dcb57600080fd5b600254421115610dda57600080fd5b6003805461ff001916610100179055600160a060020a03331660009081526005602090815260409182902034908190556007805482019081905583519182529181019190915281517fc95c41d6ec02d78ee74be3ae1eed80a0593863d90e7dc3fdbf3efce41d2bdfa7929181900390910190a1565b60025481565b60008054600160a060020a0383811691161415610e8357600060015b0154600160a060020a03169050610ea5565b600154600160a060020a0383811691161415610ea157600080610e71565b5060005b919050565b6000610eb533610e55565b8b51600160a060020a039081169116148015610ee95750600160a060020a0330168b60016020020151600160a060020a0316145b8015610ef857506007548a5111155b8015610f09575060065460208b0151115b8015610f1d575060fb61ffff16855160ff16105b1515610f2857600080fd5b60008751111561109b57898b88878787876040518088600260200280838360005b83811015610f61578181015183820152602001610f49565b5050505090500187600260200280838360005b83811015610f8c578181015183820152602001610f74565b50505050905001868051906020019060200280838360005b83811015610fbc578181015183820152602001610fa4565b50505050905001858051906020019060200280838360005b83811015610fec578181015183820152602001610fd4565b50505050905001848051906020019060200280838360005b8381101561101c578181015183820152602001611004565b50505050905001838051906020019060200280838360005b8381101561104c578181015183820152602001611034565b50505050905001828051906020019060200280838360005b8381101561107c578181015183820152602001611064565b5050505090500197505050505050505060405180910390209050611247565b6000855111156111dc57898b868686866040518087600260200280838360005b838110156110d35781810151838201526020016110bb565b5050505090500186600260200280838360005b838110156110fe5781810151838201526020016110e6565b50505050905001858051906020019060200280838360005b8381101561112e578181015183820152602001611116565b50505050905001848051906020019060200280838360005b8381101561115e578181015183820152602001611146565b50505050905001838051906020019060200280838360005b8381101561118e578181015183820152602001611176565b50505050905001828051906020019060200280838360005b838110156111be5781810151838201526020016111a6565b50505050905001965050505050505060405180910390209050611247565b898b6040518083600260200280838360005b838110156112065781810151838201526020016111ee565b5050505090500182600260200280838360005b83811015611231578181015183820152602001611219565b5050505090500192505050604051809103902090505b8a5161125d90611256836112c9565b8b8b61135f565b151561126857600080fd5b60208a8101516006558a518c51600160a060020a03908116600090815260059093526040808420929092558c516007543390921684529183209190039055855111156112bc576112bc8787878787876113e6565b5050505050505050505050565b604080518082018252601c8082527f19457468657265756d205369676e6564204d6573736167653a0a33320000000060208301908152925160009385928291908083835b6020831061132c5780518252601f19909201916020918201910161130d565b51815160209384036101000a60001901801990921691161790529201938452506040519283900301909120949350505050565b805160208083015160408051600080825281850180845289905260ff8816828401526060820195909552608081019290925251600160a060020a0388169260019260a080820193601f198101928190039091019087865af11580156113c8573d6000803e3d6000fd5b50505060206040510351600160a060020a0316149050949350505050565b600080808080805b8b518460ff1610156114fc578b8460ff1681518110151561140b57fe5b602090810290910101511580159061143d5750888460ff1681518110151561142f57fe5b906020019060200201514211155b801561148257506114828c8560ff1681518110151561145857fe5b906020019060200201518b8660ff1681518110151561147357fe5b9060200190602002015161178a565b156114f157868460ff1681518110151561149857fe5b9060200190602002015160ff16600014156114d157878460ff168151811015156114be57fe5b90602001906020020151860195506114f1565b878460ff168151811015156114e257fe5b90602001906020020151850194505b6001909301926113ee565b8392505b8a518460ff16018360ff161015611608578a84840360ff1681518110151561152457fe5b60209081029091010151158015906115565750888360ff1681518110151561154857fe5b906020019060200201514211155b801561158e575061158e8b85850360ff1681518110151561157357fe5b906020019060200201518b8560ff1681518110151561147357fe5b156115fd57868360ff168151811015156115a457fe5b9060200190602002015160ff16600014156115dd57878360ff168151811015156115ca57fe5b90602001906020020151860195506115fd565b878360ff168151811015156115ee57fe5b90602001906020020151850194505b600190920191611500565b84861061162657505060005483850390600160a060020a0316611639565b505060015484840390600160a060020a03165b600082111561177c57600160a060020a03811660009081526005602052604090205482111561166757600080fd5b600160a060020a0381166000908152600560208190526040822080548590039055839161169384610e55565b600160a060020a0316600160a060020a03168152602001908152602001600020600082825401925050819055507fb64f0fddf39691256335df4ef5402a9bdba5d13e2563eb265a744098a1d6a8548c8c604051808060200180602001838103835285818151815260200191508051906020019060200280838360005b8381101561172757818101518382015260200161170f565b50505050905001838103825284818151815260200191508051906020019060200280838360005b8381101561176657818101518382015260200161174e565b5050505090500194505050505060405180910390a15b505050505050505050505050565b60408051928352519182900360200190912014905600a165627a7a723058203f740b0dc261b764a3aebef91762da49772841c6921883d1e6150607083541a00029",
  "source": "pragma solidity ^0.4.23;\r\n\r\nimport { CryptoHandler } from \"./libraries/CryptoHandler.sol\";\r\n\r\ncontract Expirable {\r\n    \r\n    uint256 public channelEnd;\r\n    \r\n    constructor (uint256 _daysToExpire) internal {\r\n        channelEnd = now + (_daysToExpire * 1 days);\r\n    }\r\n    \r\n    modifier hasNotExpired() {\r\n        require(now <= channelEnd);\r\n        _;\r\n    }\r\n\r\n    modifier hasNotSettle() {\r\n        require(now <= (channelEnd + 1 days));\r\n        _;\r\n    }\r\n    \r\n    modifier inSettlementPeriod() {\r\n        require(now > channelEnd && now <= (channelEnd + 1 days));\r\n        _;\r\n    }\r\n\r\n    modifier hasSettled() {\r\n        require(now > (channelEnd + 1 days));\r\n        _;\r\n    }\r\n\r\n}\r\n\r\ncontract Multiownable {\r\n    \r\n    address[2] public owners;\r\n    \r\n    constructor (address[2] _owners) internal {\r\n        \r\n        owners = _owners;\r\n    }\r\n    \r\n    function getOtherOwner(address _owner)  internal view returns (address){\r\n\r\n        if(_owner == owners[0]) \r\n            return owners[1];\r\n        else if (_owner == owners[1]) \r\n            return owners[0]; \r\n        \r\n        return 0x0;\r\n\r\n    }\r\n    \r\n    modifier onlyOwners(){\r\n        \r\n        require(msg.sender == owners[0] || msg.sender == owners[1]);\r\n        _;\r\n\r\n    }\r\n\r\n    modifier onlyFarEnd(){\r\n        require(msg.sender == owners[1]);\r\n        _;\r\n    }\r\n    \r\n}\r\n\r\ncontract Modifiers {\r\n\r\n    event channelAccepted(uint256 farEndValue, uint256 totalValue);\r\n\r\n    event closeRequest(address indexed end, bool closeChange);\r\n\r\n    event channelClosed(address indexed NearEnd, uint256 nearEndFinalValue, address indexed FarEnd,\r\n    uint256 farEndFinalValue, uint256 finalId);\r\n\r\n    bool public closed;\r\n    bool public accepted;\r\n\r\n    mapping(address => bool) public disputed;\r\n    \r\n    modifier notClosed() {\r\n        require(!closed);\r\n        _;\r\n    }\r\n\r\n    modifier isAccepted() {\r\n        require(accepted);\r\n        _;\r\n    }\r\n\r\n    modifier notAccepted(){\r\n        require(!accepted);\r\n        _;\r\n    }\r\n\r\n    modifier notDisputed(){\r\n        require(disputed[msg.sender] == false);\r\n        _;\r\n    }\r\n    \r\n}\r\n\r\ncontract ChannelFinal is Multiownable, Expirable, Modifiers {\r\n\r\n    event stateUpdated(address indexed NearEnd, uint256 nearEndValue, address indexed FarEnd,\r\n    uint256 farEndValue, uint256 currentId);\r\n\r\n    event disputeAccepted(address indexed end, uint256 currentId);\r\n\r\n    event rsShownAndUsed(bytes32[] randomS, bytes32[] random);\r\n\r\n    uint16 constant public limit = 251;\r\n \r\n    struct State {\r\n        mapping(address=> uint256) values;\r\n        uint256 id;\r\n    }\r\n\r\n    State state;\r\n\r\n    uint256 public channelValue;\r\n\r\n    mapping(address => bool) public requestedClose;\r\n\r\n    constructor (address _nearEnd, address _farEnd, uint256 _daysOpen)\r\n        Multiownable([_nearEnd, _farEnd]) Expirable(_daysOpen) public payable {\r\n\r\n        state.values[_nearEnd] = msg.value;\r\n        channelValue = msg.value;\r\n\r\n    }\r\n\r\n    function acceptChannel() public payable onlyFarEnd notAccepted hasNotExpired {\r\n\r\n        accepted = true;\r\n\r\n        state.values[msg.sender] = msg.value;\r\n        channelValue += msg.value;\r\n\r\n        emit channelAccepted(msg.value, channelValue);\r\n\r\n    }\r\n\r\n    function updateState(\r\n        address[2] _end_chann, uint256[2] _values_id, uint8 _v, bytes32[2] _r_s, \r\n        bytes32[] _rsSigned, bytes32[] _rs, bytes32[] _hs, uint256[] _ttls, uint256[] _rhValues,  uint8[] _end\r\n        ) public onlyOwners isAccepted notClosed hasNotExpired {\r\n\r\n        handleState(_end_chann, _values_id, _v, _r_s, _rsSigned, _rs, _hs, _ttls, _rhValues, _end);\r\n\r\n        emit stateUpdated(msg.sender, state.values[msg.sender], _end_chann[0], state.values[getOtherOwner(msg.sender)], state.id);\r\n    }\r\n\r\n    function disputeState(\r\n        address[2] _end_chann, uint256[2] _values_id, uint8 _v, bytes32[2] _r_s, \r\n        bytes32[] _rsSigned, bytes32[] _rs, bytes32[] _hs, uint256[] _ttls, uint256[] _rhValues,  uint8[] _end\r\n        ) public onlyOwners isAccepted notClosed inSettlementPeriod notDisputed {\r\n\r\n        handleState(_end_chann, _values_id, _v, _r_s, _rsSigned, _rs, _hs, _ttls, _rhValues, _end);\r\n\r\n        disputed[msg.sender] = true;\r\n        \r\n        emit disputeAccepted(msg.sender, state.id);\r\n\r\n    }\r\n\r\n    function handleState(\r\n        address[2] _end_chann, uint256[2] _values_id, uint8 _v, bytes32[2] _r_s, \r\n        bytes32[] _rsSigned, bytes32[] _rs, bytes32[] _hs, uint256[] _ttls, uint256[] _rhValues,  uint8[] _end\r\n        ) internal {\r\n\r\n        require(\r\n            _end_chann[0] == getOtherOwner(msg.sender) &&\r\n            _end_chann[1] == address(this) &&\r\n            _values_id[0] <= channelValue && \r\n            _values_id[1] > state.id &&\r\n            uint8(_hs.length) < limit\r\n        );\r\n\r\n        bytes32 msgHash;\r\n\r\n        if(_rsSigned.length > 0)\r\n          msgHash = keccak256(_values_id, _end_chann, _rsSigned, _hs, _ttls,  _rhValues, _end);\r\n        else if(_hs.length > 0)\r\n          msgHash = keccak256(_values_id, _end_chann, _hs, _ttls,  _rhValues, _end);\r\n        else\r\n          msgHash = keccak256(_values_id, _end_chann);\r\n\r\n        require(CryptoHandler.verifySignature(_end_chann[0], CryptoHandler.prefixSignHash(msgHash), _v, _r_s));\r\n\r\n        state.id = _values_id[1];\r\n        state.values[_end_chann[0]] = _values_id[0];\r\n        state.values[msg.sender] = channelValue - _values_id[0];\r\n\r\n        if(_hs.length > 0) \r\n            checkRshashesIn_hs(_rsSigned, _rs, _hs, _ttls, _rhValues, _end);\r\n\r\n    }\r\n\r\n    function checkRshashesIn_hs(bytes32[] _rsSigned, bytes32[] _rs, bytes32[] _hs, uint256[] _ttls, uint256[] _rhValues,  uint8[] _end) internal {\r\n        \r\n        uint256 near;\r\n        uint256 far;\r\n        uint8 i = 0;\r\n\r\n        for(i; i < _rsSigned.length; i++) {\r\n            if(_rsSigned[i] != 0x0 && now <= _ttls[i] && CryptoHandler.verifyHash(_rsSigned[i], _hs[i])) {\r\n                if(_end[i] == 0)\r\n                    near += _rhValues[i];\r\n                else\r\n                    far += _rhValues[i];\r\n            }\r\n        }\r\n\r\n        for(uint8 j = i; j < (i + _rs.length); j++) {\r\n            if(_rs[j-i] != 0x0 && now <= _ttls[j] && CryptoHandler.verifyHash(_rs[j-i], _hs[j])) {\r\n                if(_end[j] == 0)\r\n                    near += _rhValues[j];\r\n                else\r\n                    far += _rhValues[j];\r\n            }\r\n        }\r\n\r\n        uint values;\r\n        address higherAddrs;\r\n\r\n        if(near >= far) {\r\n            values = near - far;\r\n            higherAddrs = owners[0];\r\n        } else {\r\n            values = far - near;\r\n            higherAddrs = owners[1];\r\n        }\r\n\r\n        if(values > 0) {\r\n\r\n            require(uint(values) <= state.values[higherAddrs]);\r\n\r\n            state.values[higherAddrs] -= uint(values);\r\n            state.values[getOtherOwner(higherAddrs)] += uint(values);\r\n\r\n            emit rsShownAndUsed(_rsSigned, _rs);\r\n\r\n        }\r\n\r\n    }\r\n\r\n    function closeChannel(bool _close) public onlyOwners isAccepted notClosed hasNotSettle {\r\n        \r\n        if(_close && requestedClose[getOtherOwner(msg.sender)]) {\r\n\r\n            closed = true;\r\n            emit channelClosed(owners[0], state.values[owners[0]], owners[1], state.values[owners[1]], state.id);\r\n\r\n            if (state.values[owners[0]] > 0) {\r\n                owners[0].transfer(state.values[owners[0]]);\r\n                state.values[owners[0]] = 0;\r\n            }\r\n            if (state.values[owners[1]] > 0) {\r\n                owners[1].transfer(state.values[owners[1]]);\r\n                state.values[owners[1]] = 0;\r\n            }\r\n\r\n        } else {\r\n\r\n            requestedClose[msg.sender] = _close;\r\n\r\n            emit closeRequest(msg.sender, _close);\r\n\r\n        }\r\n    }\r\n\r\n    function unlockFunds() public onlyOwners notClosed hasSettled {\r\n\r\n        closed = true;\r\n        emit channelClosed(owners[0], state.values[owners[0]], owners[1], state.values[owners[1]], state.id);\r\n\r\n        if (state.values[owners[0]] > 0) {\r\n            owners[0].transfer(state.values[owners[0]]);\r\n            state.values[owners[0]] = 0;\r\n        }\r\n        if (state.values[owners[1]] > 0) {\r\n            owners[1].transfer(state.values[owners[1]]);\r\n            state.values[owners[1]] = 0;\r\n        }\r\n            \r\n    }\r\n\r\n    function getStateNear() public view returns (uint256 val) {\r\n        return state.values[owners[0]];\r\n    }\r\n    \r\n    function getStateFar() public view returns (uint256 val) {\r\n        return state.values[owners[1]];\r\n    }\r\n    \r\n    function getStateId() public view returns (uint256 val) {\r\n        return state.id;\r\n    }\r\n    \r\n}\r\n\r\ncontract Factory{\r\n    \r\n    event channelProcessed(address indexed ContractAddrs, address indexed NearEnd, address indexed FarEnd,\r\n    uint256 channelVal, uint256 endDate);\r\n    \r\n    function createChannel(address _farEnd, uint _daysOpen) public payable {\r\n        ChannelFinal channel = (new ChannelFinal).value(msg.value)(msg.sender, _farEnd, _daysOpen);\r\n        emit channelProcessed(channel, msg.sender, _farEnd, channel.channelValue(), channel.channelEnd());\r\n    }\r\n    \r\n}",
  "sourcePath": "C:\\Users\\sroldanl\\Documents\\TFG\\tests\\contracts\\Factory.sol",
  "compiler": {
    "name": "solc",
    "version": "0.4.23+commit.124ca40d.Emscripten.clang"
  },
  "schemaVersion": "2.0.0",
  "updatedAt": "2018-05-19T19:07:20.091Z"
}