{
  "contractName": "CryptoHandler",
  "abi": [
    {
      "constant": true,
      "inputs": [],
      "name": "msgSignPrefix",
      "outputs": [
        {
          "name": "",
          "type": "bytes"
        }
      ],
      "payable": false,
      "stateMutability": "view",
      "type": "function"
    }
  ],
  "bytecode": "0x61013c610030600b82828239805160001a6073146000811461002057610022565bfe5b5030600052607381538281f30073000000000000000000000000000000000000000030146080604052600436106100575763ffffffff7c0100000000000000000000000000000000000000000000000000000000600035041663510abb76811461005c575b600080fd5b6100646100d9565b6040805160208082528351818301528351919283929083019185019080838360005b8381101561009e578181015183820152602001610086565b50505050905090810190601f1680156100cb5780820380516001836020036101000a031916815260200191505b509250505060405180910390f35b60408051808201909152601c81527f19457468657265756d205369676e6564204d6573736167653a0a3332000000006020820152815600a165627a7a723058200533868e4873aab4b028a37109791758e6d59e9d3b0a3ac5308a989c0c8eea160029",
  "source": "pragma solidity ^0.4.23;\r\n\r\nlibrary CryptoHandler{\r\n\r\n    bytes public constant msgSignPrefix = \"\\x19Ethereum Signed Message:\\n32\";\r\n\r\n    function verifySignature(address _addr, bytes32 _msgHash, uint8 _v, bytes32[2] _r_s) internal pure returns (bool) {\r\n        return ecrecover(_msgHash, _v, _r_s[0], _r_s[1]) == _addr;\r\n    }\r\n\r\n    function verifyHash(bytes32 _msg, bytes32 _msgHash) internal pure returns (bool) {\r\n        return keccak256(_msg) == _msgHash;\r\n    }\r\n\r\n    function prefixSignHash(bytes32 _msgHash) internal pure returns (bytes32) {\r\n        return keccak256(msgSignPrefix, _msgHash);\r\n    }\r\n\r\n}",
  "sourcePath": "C:\\Users\\sroldanl\\Documents\\TFG\\tests\\contracts\\libraries\\CryptoHandler.sol",
  "compiler": {
    "name": "solc",
    "version": "0.4.23+commit.124ca40d.Emscripten.clang"
  },
  "schemaVersion": "2.0.0",
  "updatedAt": "2018-05-22T10:55:20.004Z"
}